:08000000803102288731F52F41
:100BBC0039340134F1007109F000700820009905F6
:100BCC000800F1007108F00070082000990408007A
:100BDC00603031008D008F0191019301920108006A
:100BEC002F0096019701980199019A019B01080029
:100BFC008531F62585318631182685318531EE25EE
:100C0C00853108008531FE25863120009401920142
:100C1C003930F9000130FA008731672786310E2E02
:100C2C008031022820009A019901960197019801C0
:100C3C0007309500FE309100FF309200FF3093009A
:100C4C00FF309400FF303E00D900FF30CE00FF3063
:100C5C00C3000730E400FE30B800DA01E501C4013E
:100C6C00B901CF01E601BA01C501D001DB01FF30AA
:100C7C00BB00FF30C600FF30D100FF30DC00073076
:100C8C00E700FF30BC00FF30C700FF30D200FF3060
:100C9C00DD000730E8000800F601F31F562E572E32
:100CAC005E2EF209F309F20A0319F30AF601F60AA9
:100CBC00F11F612E622E672EF009F109F00A03195B
:100CCC00F10A7008710403196C2E6D2E962EF50125
:100CDC00F50A792E0130F035F10D890B712E0130AA
:100CEC00F4007408F507F11F7C2E7D2E702E710810
:100CFC007302031D832E70087202031C862E872E2E
:100D0C008B2E7008F2027108F33B0130F136F00CB7
:100D1C00890B8C2E0130F502031D952E962E7D2EFF
:100D2C00760803199A2E9B2EA02EF209F309F20ACB
:100D3C000319F30A7308F1007208F0000800F601B9
:100D4C00F11FA92EAA2EB12EF009F109F00A0319F0
:100D5C00F10AF601F60AF31FB42EB52EBE2EF209D7
:100D6C00F309F20A0319F30A0130F4007408F606C9
:100D7C00F701F801700871040319C52EC62EF52E63
:100D8C00F501F50AD22E0130F035F10D890BCA2E82
:100D9C000130F4007408F507F11FD52ED62EC92E9C
:100DAC000130F735F80D890BD72E71087302031D2E
:100DBC00E12E70087202031CE42EE52EEA2E700858
:100DCC00F2027108F33B77140130F136F00C890B09
:100DDC00EB2E0130F502031DF42EF52ED62E7608DF
:100DEC000319F92EFA2EFF2EF709F809F70A031941
:100DFC00F80A7808F1007708F0000800F400FF30DA
:100E0C008531E72587313C2F3F308531E02587310F
:100E1C00662F06308531E0258731662F5B308531B2
:100E2C00E0258731662F4F308531E0258731662FDD
:100E3C0066308531E0258731662F6D308531E025B0
:100E4C008731662F7D308531E0258731662F07305D
:100E5C008531E0258731662F7F308531E02587315C
:100E6C00662F67308531E0258731662F7408F200D4
:100E7C00F301F21BF3037308003A0319462F662F94
:100E8C007208003A03190A2F013A03190F2F033A7B
:100E9C000319142F013A0319192F073A03191E2F9E
:100EAC00013A0319232F033A0319282F013A031986
:100EBC002D2F0F3A0319322F013A0319372F662FB2
:100ECC000800E830F0000330F1007A08F3007908EC
:100EDC00F2008631A526873171082000A100700828
:100EEC00A000E830F0000330F1007A08F300790834
:100EFC00F2008631522687317108FA007008F90029
:100F0C006430F0000030F1007A08F3007908F20048
:100F1C008631A526873171082000A3007008A20035
:100F2C006430F0000030F1007A08F3007908F20028
:100F3C008631522687317108FA007008F9000A30A0
:100F4C00F0000030F1007A08F3007908F2008631E5
:100F5C00A526873171082000A5007008A4000A306E
:100F6C00F0000030F1007A08F3007908F2008631C5
:100F7C005226873171082000A7007008A6002608A9
:100F8C00873104278731083020009700A630890B61
:100F9C00CD2F0032200024088731042787310430FC
:100FAC0020009700A630890BD92F00322000220890
:100FBC00873104278731023020009700A630890B37
:100FCC00E52F0032200020088731042787310130BB
:100FDC0020009700A630890BF12F003208008531D4
:100FEC00DE258731FB008531DF258731FC002000B1
:040FFC008631082E04
:020000040001F9
:08000000FF3FFF3FFF3FFF3F00
:0A000E00EC3FFF3F9F3FFF3FFF3F25
:00000001FF
